{
  "_format": "hh-sol-artifact-1",
  "contractName": "BugBounty",
  "sourceName": "contracts/BugBounty.sol",
  "abi": [
    {
      "inputs": [
        {
          "internalType": "uint256",
          "name": "",
          "type": "uint256"
        }
      ],
      "name": "bugs",
      "outputs": [
        {
          "internalType": "string",
          "name": "url",
          "type": "string"
        },
        {
          "internalType": "string",
          "name": "description",
          "type": "string"
        },
        {
          "internalType": "bool",
          "name": "verified",
          "type": "bool"
        }
      ],
      "stateMutability": "view",
      "type": "function"
    },
    {
      "inputs": [
        {
          "internalType": "uint256",
          "name": "id",
          "type": "uint256"
        }
      ],
      "name": "getBug",
      "outputs": [
        {
          "internalType": "string",
          "name": "",
          "type": "string"
        },
        {
          "internalType": "string",
          "name": "",
          "type": "string"
        },
        {
          "internalType": "bool",
          "name": "",
          "type": "bool"
        }
      ],
      "stateMutability": "view",
      "type": "function"
    },
    {
      "inputs": [],
      "name": "getBugCount",
      "outputs": [
        {
          "internalType": "uint256",
          "name": "",
          "type": "uint256"
        }
      ],
      "stateMutability": "view",
      "type": "function"
    },
    {
      "inputs": [
        {
          "internalType": "string",
          "name": "_url",
          "type": "string"
        },
        {
          "internalType": "string",
          "name": "_desc",
          "type": "string"
        }
      ],
      "name": "submitBug",
      "outputs": [],
      "stateMutability": "nonpayable",
      "type": "function"
    },
    {
      "inputs": [
        {
          "internalType": "uint256",
          "name": "id",
          "type": "uint256"
        }
      ],
      "name": "verifyBug",
      "outputs": [],
      "stateMutability": "nonpayable",
      "type": "function"
    }
  ],
  "bytecode": "0x6080604052348015600f57600080fd5b50610c608061001f6000396000f3fe608060405234801561001057600080fd5b50600436106100575760003560e01c80630b70d0511461005c5780636d4688de1461008e57806373e1aabf146100aa578063c7290bc3146100dc578063f49d6c21146100f8575b600080fd5b610076600480360381019061007191906105bd565b610116565b60405161008593929190610695565b60405180910390f35b6100a860048036038101906100a3919061080f565b6102ed565b005b6100c460048036038101906100bf91906105bd565b610388565b6040516100d393929190610695565b60405180910390f35b6100f660048036038101906100f191906105bd565b6104df565b005b610100610567565b60405161010d9190610896565b60405180910390f35b606080600080805490508410610161576040517f08c379a0000000000000000000000000000000000000000000000000000000008152600401610158906108fd565b60405180910390fd5b60008085815481106101765761017561091d565b5b906000526020600020906003020160405180606001604052908160008201805461019f9061097b565b80601f01602080910402602001604051908101604052809291908181526020018280546101cb9061097b565b80156102185780601f106101ed57610100808354040283529160200191610218565b820191906000526020600020905b8154815290600101906020018083116101fb57829003601f168201915b505050505081526020016001820180546102319061097b565b80601f016020809104026020016040519081016040528092919081815260200182805461025d9061097b565b80156102aa5780601f1061027f576101008083540402835291602001916102aa565b820191906000526020600020905b81548152906001019060200180831161028d57829003601f168201915b505050505081526020016002820160009054906101000a900460ff1615151515815250509050806000015181602001518260400151935093509350509193909250565b60006040518060600160405280848152602001838152602001600015158152509080600181540180825580915050600190039060005260206000209060030201600090919091909150600082015181600001908161034b9190610b58565b5060208201518160010190816103619190610b58565b5060408201518160020160006101000a81548160ff02191690831515021790555050505050565b6000818154811061039857600080fd5b90600052602060002090600302016000915090508060000180546103bb9061097b565b80601f01602080910402602001604051908101604052809291908181526020018280546103e79061097b565b80156104345780601f1061040957610100808354040283529160200191610434565b820191906000526020600020905b81548152906001019060200180831161041757829003601f168201915b5050505050908060010180546104499061097b565b80601f01602080910402602001604051908101604052809291908181526020018280546104759061097b565b80156104c25780601f10610497576101008083540402835291602001916104c2565b820191906000526020600020905b8154815290600101906020018083116104a557829003601f168201915b5050505050908060020160009054906101000a900460ff16905083565b6000805490508110610526576040517f08c379a000000000000000000000000000000000000000000000000000000000815260040161051d906108fd565b60405180910390fd5b60016000828154811061053c5761053b61091d565b5b906000526020600020906003020160020160006101000a81548160ff02191690831515021790555050565b60008080549050905090565b6000604051905090565b600080fd5b600080fd5b6000819050919050565b61059a81610587565b81146105a557600080fd5b50565b6000813590506105b781610591565b92915050565b6000602082840312156105d3576105d261057d565b5b60006105e1848285016105a8565b91505092915050565b600081519050919050565b600082825260208201905092915050565b60005b83811015610624578082015181840152602081019050610609565b60008484015250505050565b6000601f19601f8301169050919050565b600061064c826105ea565b61065681856105f5565b9350610666818560208601610606565b61066f81610630565b840191505092915050565b60008115159050919050565b61068f8161067a565b82525050565b600060608201905081810360008301526106af8186610641565b905081810360208301526106c38185610641565b90506106d26040830184610686565b949350505050565b600080fd5b600080fd5b7f4e487b7100000000000000000000000000000000000000000000000000000000600052604160045260246000fd5b61071c82610630565b810181811067ffffffffffffffff8211171561073b5761073a6106e4565b5b80604052505050565b600061074e610573565b905061075a8282610713565b919050565b600067ffffffffffffffff82111561077a576107796106e4565b5b61078382610630565b9050602081019050919050565b82818337600083830152505050565b60006107b26107ad8461075f565b610744565b9050828152602081018484840111156107ce576107cd6106df565b5b6107d9848285610790565b509392505050565b600082601f8301126107f6576107f56106da565b5b813561080684826020860161079f565b91505092915050565b600080604083850312156108265761082561057d565b5b600083013567ffffffffffffffff81111561084457610843610582565b5b610850858286016107e1565b925050602083013567ffffffffffffffff81111561087157610870610582565b5b61087d858286016107e1565b9150509250929050565b61089081610587565b82525050565b60006020820190506108ab6000830184610887565b92915050565b7f427567206e6f7420666f756e6400000000000000000000000000000000000000600082015250565b60006108e7600d836105f5565b91506108f2826108b1565b602082019050919050565b60006020820190508181036000830152610916816108da565b9050919050565b7f4e487b7100000000000000000000000000000000000000000000000000000000600052603260045260246000fd5b7f4e487b7100000000000000000000000000000000000000000000000000000000600052602260045260246000fd5b6000600282049050600182168061099357607f821691505b6020821081036109a6576109a561094c565b5b50919050565b60008190508160005260206000209050919050565b60006020601f8301049050919050565b600082821b905092915050565b600060088302610a0e7fffffffffffffffffffffffffffffffffffffffffffffffffffffffffffffffff826109d1565b610a1886836109d1565b95508019841693508086168417925050509392505050565b6000819050919050565b6000610a55610a50610a4b84610587565b610a30565b610587565b9050919050565b6000819050919050565b610a6f83610a3a565b610a83610a7b82610a5c565b8484546109de565b825550505050565b600090565b610a98610a8b565b610aa3818484610a66565b505050565b5b81811015610ac757610abc600082610a90565b600181019050610aa9565b5050565b601f821115610b0c57610add816109ac565b610ae6846109c1565b81016020851015610af5578190505b610b09610b01856109c1565b830182610aa8565b50505b505050565b600082821c905092915050565b6000610b2f60001984600802610b11565b1980831691505092915050565b6000610b488383610b1e565b9150826002028217905092915050565b610b61826105ea565b67ffffffffffffffff811115610b7a57610b796106e4565b5b610b84825461097b565b610b8f828285610acb565b600060209050601f831160018114610bc25760008415610bb0578287015190505b610bba8582610b3c565b865550610c22565b601f198416610bd0866109ac565b60005b82811015610bf857848901518255600182019150602085019450602081019050610bd3565b86831015610c155784890151610c11601f891682610b1e565b8355505b6001600288020188555050505b50505050505056fea26469706673582212201b68a62b2f77e27a193b200e38722bfae0c7114cac87d546ec06b9e50bab1e4a64736f6c634300081c0033",
  "linkReferences": {},
  "deployedLinkReferences": {}
}