{
  "_format": "hh-sol-artifact-1",
  "contractName": "BugBounty",
  "sourceName": "contracts/BugBounty.sol",
  "abi": [
    {
      "anonymous": false,
      "inputs": [
        {
          "indexed": true,
          "internalType": "uint256",
          "name": "id",
          "type": "uint256"
        },
        {
          "indexed": false,
          "internalType": "string",
          "name": "url",
          "type": "string"
        },
        {
          "indexed": false,
          "internalType": "string",
          "name": "description",
          "type": "string"
        }
      ],
      "name": "BugSubmitted",
      "type": "event"
    },
    {
      "inputs": [],
      "name": "getAllBugs",
      "outputs": [
        {
          "internalType": "string[]",
          "name": "urls",
          "type": "string[]"
        },
        {
          "internalType": "string[]",
          "name": "descriptions",
          "type": "string[]"
        },
        {
          "internalType": "bool[]",
          "name": "verifiedStatuses",
          "type": "bool[]"
        }
      ],
      "stateMutability": "view",
      "type": "function"
    },
    {
      "inputs": [
        {
          "internalType": "string",
          "name": "_url",
          "type": "string"
        },
        {
          "internalType": "string",
          "name": "_description",
          "type": "string"
        }
      ],
      "name": "submitBug",
      "outputs": [],
      "stateMutability": "nonpayable",
      "type": "function"
    },
    {
      "inputs": [
        {
          "internalType": "uint256",
          "name": "_id",
          "type": "uint256"
        }
      ],
      "name": "verifyBug",
      "outputs": [],
      "stateMutability": "nonpayable",
      "type": "function"
    }
  ],
  "bytecode": "0x6080604052348015600f57600080fd5b50610e338061001f6000396000f3fe608060405234801561001057600080fd5b50600436106100415760003560e01c8063205abf6b146100465780636d4688de14610066578063c7290bc314610082575b600080fd5b61004e61009e565b60405161005d93929190610730565b60405180910390f35b610080600480360381019061007b91906108c5565b6103a6565b005b61009c60048036038101906100979190610973565b61048c565b005b60608060606000808054905090508067ffffffffffffffff8111156100c6576100c561079a565b5b6040519080825280602002602001820160405280156100f957816020015b60608152602001906001900390816100e45790505b5093508067ffffffffffffffff8111156101165761011561079a565b5b60405190808252806020026020018201604052801561014957816020015b60608152602001906001900390816101345790505b5092508067ffffffffffffffff8111156101665761016561079a565b5b6040519080825280602002602001820160405280156101945781602001602082028036833780820191505090505b50915060005b8181101561039f57600081815481106101b6576101b56109a0565b5b906000526020600020906003020160000180546101d2906109fe565b80601f01602080910402602001604051908101604052809291908181526020018280546101fe906109fe565b801561024b5780601f106102205761010080835404028352916020019161024b565b820191906000526020600020905b81548152906001019060200180831161022e57829003601f168201915b5050505050858281518110610263576102626109a0565b5b602002602001018190525060008181548110610282576102816109a0565b5b9060005260206000209060030201600101805461029e906109fe565b80601f01602080910402602001604051908101604052809291908181526020018280546102ca906109fe565b80156103175780601f106102ec57610100808354040283529160200191610317565b820191906000526020600020905b8154815290600101906020018083116102fa57829003601f168201915b505050505084828151811061032f5761032e6109a0565b5b60200260200101819052506000818154811061034e5761034d6109a0565b5b906000526020600020906003020160020160009054906101000a900460ff168382815181106103805761037f6109a0565b5b602002602001019015159081151581525050808060010191505061019a565b5050909192565b6000604051806060016040528084815260200183815260200160001515815250908060018154018082558091505060019003906000526020600020906003020160009091909190915060008201518160000190816104049190610bdb565b50602082015181600101908161041a9190610bdb565b5060408201518160020160006101000a81548160ff0219169083151502179055505050600160008054905061044f9190610cdc565b7fa44a19a96c6fbb81db8db2785e5002a4b2a84ac19a3752f9500ed988fbefe7f18383604051610480929190610d5a565b60405180910390a25050565b60008054905081106104d3576040517f08c379a00000000000000000000000000000000000000000000000000000000081526004016104ca90610ddd565b60405180910390fd5b6001600082815481106104e9576104e86109a0565b5b906000526020600020906003020160020160006101000a81548160ff02191690831515021790555050565b600081519050919050565b600082825260208201905092915050565b6000819050602082019050919050565b600081519050919050565b600082825260208201905092915050565b60005b8381101561057a57808201518184015260208101905061055f565b60008484015250505050565b6000601f19601f8301169050919050565b60006105a282610540565b6105ac818561054b565b93506105bc81856020860161055c565b6105c581610586565b840191505092915050565b60006105dc8383610597565b905092915050565b6000602082019050919050565b60006105fc82610514565b610606818561051f565b93508360208202850161061885610530565b8060005b85811015610654578484038952815161063585826105d0565b9450610640836105e4565b925060208a0199505060018101905061061c565b50829750879550505050505092915050565b600081519050919050565b600082825260208201905092915050565b6000819050602082019050919050565b60008115159050919050565b6106a781610692565b82525050565b60006106b9838361069e565b60208301905092915050565b6000602082019050919050565b60006106dd82610666565b6106e78185610671565b93506106f283610682565b8060005b8381101561072357815161070a88826106ad565b9750610715836106c5565b9250506001810190506106f6565b5085935050505092915050565b6000606082019050818103600083015261074a81866105f1565b9050818103602083015261075e81856105f1565b9050818103604083015261077281846106d2565b9050949350505050565b6000604051905090565b600080fd5b600080fd5b600080fd5b600080fd5b7f4e487b7100000000000000000000000000000000000000000000000000000000600052604160045260246000fd5b6107d282610586565b810181811067ffffffffffffffff821117156107f1576107f061079a565b5b80604052505050565b600061080461077c565b905061081082826107c9565b919050565b600067ffffffffffffffff8211156108305761082f61079a565b5b61083982610586565b9050602081019050919050565b82818337600083830152505050565b600061086861086384610815565b6107fa565b90508281526020810184848401111561088457610883610795565b5b61088f848285610846565b509392505050565b600082601f8301126108ac576108ab610790565b5b81356108bc848260208601610855565b91505092915050565b600080604083850312156108dc576108db610786565b5b600083013567ffffffffffffffff8111156108fa576108f961078b565b5b61090685828601610897565b925050602083013567ffffffffffffffff8111156109275761092661078b565b5b61093385828601610897565b9150509250929050565b6000819050919050565b6109508161093d565b811461095b57600080fd5b50565b60008135905061096d81610947565b92915050565b60006020828403121561098957610988610786565b5b60006109978482850161095e565b91505092915050565b7f4e487b7100000000000000000000000000000000000000000000000000000000600052603260045260246000fd5b7f4e487b7100000000000000000000000000000000000000000000000000000000600052602260045260246000fd5b60006002820490506001821680610a1657607f821691505b602082108103610a2957610a286109cf565b5b50919050565b60008190508160005260206000209050919050565b60006020601f8301049050919050565b600082821b905092915050565b600060088302610a917fffffffffffffffffffffffffffffffffffffffffffffffffffffffffffffffff82610a54565b610a9b8683610a54565b95508019841693508086168417925050509392505050565b6000819050919050565b6000610ad8610ad3610ace8461093d565b610ab3565b61093d565b9050919050565b6000819050919050565b610af283610abd565b610b06610afe82610adf565b848454610a61565b825550505050565b600090565b610b1b610b0e565b610b26818484610ae9565b505050565b5b81811015610b4a57610b3f600082610b13565b600181019050610b2c565b5050565b601f821115610b8f57610b6081610a2f565b610b6984610a44565b81016020851015610b78578190505b610b8c610b8485610a44565b830182610b2b565b50505b505050565b600082821c905092915050565b6000610bb260001984600802610b94565b1980831691505092915050565b6000610bcb8383610ba1565b9150826002028217905092915050565b610be482610540565b67ffffffffffffffff811115610bfd57610bfc61079a565b5b610c0782546109fe565b610c12828285610b4e565b600060209050601f831160018114610c455760008415610c33578287015190505b610c3d8582610bbf565b865550610ca5565b601f198416610c5386610a2f565b60005b82811015610c7b57848901518255600182019150602085019450602081019050610c56565b86831015610c985784890151610c94601f891682610ba1565b8355505b6001600288020188555050505b505050505050565b7f4e487b7100000000000000000000000000000000000000000000000000000000600052601160045260246000fd5b6000610ce78261093d565b9150610cf28361093d565b9250828203905081811115610d0a57610d09610cad565b5b92915050565b600082825260208201905092915050565b6000610d2c82610540565b610d368185610d10565b9350610d4681856020860161055c565b610d4f81610586565b840191505092915050565b60006040820190508181036000830152610d748185610d21565b90508181036020830152610d888184610d21565b90509392505050565b7f496e76616c696420627567204944000000000000000000000000000000000000600082015250565b6000610dc7600e83610d10565b9150610dd282610d91565b602082019050919050565b60006020820190508181036000830152610df681610dba565b905091905056fea26469706673582212206d110388c51cb4b94af199ea6a440ac24560363ba33a40a442e9e09c9dd0e81464736f6c634300081c0033",
  "linkReferences": {},
  "deployedLinkReferences": {}
}